{
  "_format": "hh-sol-artifact-1",
  "contractName": "ClaimToken",
  "sourceName": "contracts/ClaimToken.sol",
  "abi": [
    {
      "inputs": [],
      "stateMutability": "nonpayable",
      "type": "constructor"
    },
    {
      "inputs": [
        {
          "internalType": "address",
          "name": "spender",
          "type": "address"
        },
        {
          "internalType": "uint256",
          "name": "allowance",
          "type": "uint256"
        },
        {
          "internalType": "uint256",
          "name": "needed",
          "type": "uint256"
        }
      ],
      "name": "ERC20InsufficientAllowance",
      "type": "error"
    },
    {
      "inputs": [
        {
          "internalType": "address",
          "name": "sender",
          "type": "address"
        },
        {
          "internalType": "uint256",
          "name": "balance",
          "type": "uint256"
        },
        {
          "internalType": "uint256",
          "name": "needed",
          "type": "uint256"
        }
      ],
      "name": "ERC20InsufficientBalance",
      "type": "error"
    },
    {
      "inputs": [
        {
          "internalType": "address",
          "name": "approver",
          "type": "address"
        }
      ],
      "name": "ERC20InvalidApprover",
      "type": "error"
    },
    {
      "inputs": [
        {
          "internalType": "address",
          "name": "receiver",
          "type": "address"
        }
      ],
      "name": "ERC20InvalidReceiver",
      "type": "error"
    },
    {
      "inputs": [
        {
          "internalType": "address",
          "name": "sender",
          "type": "address"
        }
      ],
      "name": "ERC20InvalidSender",
      "type": "error"
    },
    {
      "inputs": [
        {
          "internalType": "address",
          "name": "spender",
          "type": "address"
        }
      ],
      "name": "ERC20InvalidSpender",
      "type": "error"
    },
    {
      "inputs": [
        {
          "internalType": "address",
          "name": "owner",
          "type": "address"
        }
      ],
      "name": "OwnableInvalidOwner",
      "type": "error"
    },
    {
      "inputs": [
        {
          "internalType": "address",
          "name": "account",
          "type": "address"
        }
      ],
      "name": "OwnableUnauthorizedAccount",
      "type": "error"
    },
    {
      "anonymous": false,
      "inputs": [
        {
          "indexed": true,
          "internalType": "address",
          "name": "owner",
          "type": "address"
        },
        {
          "indexed": true,
          "internalType": "address",
          "name": "spender",
          "type": "address"
        },
        {
          "indexed": false,
          "internalType": "uint256",
          "name": "value",
          "type": "uint256"
        }
      ],
      "name": "Approval",
      "type": "event"
    },
    {
      "anonymous": false,
      "inputs": [
        {
          "indexed": true,
          "internalType": "address",
          "name": "previousOwner",
          "type": "address"
        },
        {
          "indexed": true,
          "internalType": "address",
          "name": "newOwner",
          "type": "address"
        }
      ],
      "name": "OwnershipTransferred",
      "type": "event"
    },
    {
      "anonymous": false,
      "inputs": [
        {
          "indexed": true,
          "internalType": "address",
          "name": "claimer",
          "type": "address"
        },
        {
          "indexed": false,
          "internalType": "uint256",
          "name": "amount",
          "type": "uint256"
        }
      ],
      "name": "TokensClaimed",
      "type": "event"
    },
    {
      "anonymous": false,
      "inputs": [
        {
          "indexed": true,
          "internalType": "address",
          "name": "from",
          "type": "address"
        },
        {
          "indexed": true,
          "internalType": "address",
          "name": "to",
          "type": "address"
        },
        {
          "indexed": false,
          "internalType": "uint256",
          "name": "value",
          "type": "uint256"
        }
      ],
      "name": "Transfer",
      "type": "event"
    },
    {
      "inputs": [],
      "name": "CLAIM_AMOUNT",
      "outputs": [
        {
          "internalType": "uint256",
          "name": "",
          "type": "uint256"
        }
      ],
      "stateMutability": "view",
      "type": "function"
    },
    {
      "inputs": [
        {
          "internalType": "address",
          "name": "owner",
          "type": "address"
        },
        {
          "internalType": "address",
          "name": "spender",
          "type": "address"
        }
      ],
      "name": "allowance",
      "outputs": [
        {
          "internalType": "uint256",
          "name": "",
          "type": "uint256"
        }
      ],
      "stateMutability": "view",
      "type": "function"
    },
    {
      "inputs": [
        {
          "internalType": "address",
          "name": "spender",
          "type": "address"
        },
        {
          "internalType": "uint256",
          "name": "value",
          "type": "uint256"
        }
      ],
      "name": "approve",
      "outputs": [
        {
          "internalType": "bool",
          "name": "",
          "type": "bool"
        }
      ],
      "stateMutability": "nonpayable",
      "type": "function"
    },
    {
      "inputs": [
        {
          "internalType": "address",
          "name": "account",
          "type": "address"
        }
      ],
      "name": "balanceOf",
      "outputs": [
        {
          "internalType": "uint256",
          "name": "",
          "type": "uint256"
        }
      ],
      "stateMutability": "view",
      "type": "function"
    },
    {
      "inputs": [],
      "name": "claimTokens",
      "outputs": [],
      "stateMutability": "nonpayable",
      "type": "function"
    },
    {
      "inputs": [],
      "name": "decimals",
      "outputs": [
        {
          "internalType": "uint8",
          "name": "",
          "type": "uint8"
        }
      ],
      "stateMutability": "view",
      "type": "function"
    },
    {
      "inputs": [],
      "name": "getClaimAmount",
      "outputs": [
        {
          "internalType": "uint256",
          "name": "",
          "type": "uint256"
        }
      ],
      "stateMutability": "pure",
      "type": "function"
    },
    {
      "inputs": [],
      "name": "getContractBalance",
      "outputs": [
        {
          "internalType": "uint256",
          "name": "",
          "type": "uint256"
        }
      ],
      "stateMutability": "view",
      "type": "function"
    },
    {
      "inputs": [
        {
          "internalType": "address",
          "name": "_address",
          "type": "address"
        }
      ],
      "name": "hasAddressClaimed",
      "outputs": [
        {
          "internalType": "bool",
          "name": "",
          "type": "bool"
        }
      ],
      "stateMutability": "view",
      "type": "function"
    },
    {
      "inputs": [
        {
          "internalType": "address",
          "name": "",
          "type": "address"
        }
      ],
      "name": "hasClaimed",
      "outputs": [
        {
          "internalType": "bool",
          "name": "",
          "type": "bool"
        }
      ],
      "stateMutability": "view",
      "type": "function"
    },
    {
      "inputs": [],
      "name": "name",
      "outputs": [
        {
          "internalType": "string",
          "name": "",
          "type": "string"
        }
      ],
      "stateMutability": "view",
      "type": "function"
    },
    {
      "inputs": [],
      "name": "owner",
      "outputs": [
        {
          "internalType": "address",
          "name": "",
          "type": "address"
        }
      ],
      "stateMutability": "view",
      "type": "function"
    },
    {
      "inputs": [],
      "name": "renounceOwnership",
      "outputs": [],
      "stateMutability": "nonpayable",
      "type": "function"
    },
    {
      "inputs": [],
      "name": "symbol",
      "outputs": [
        {
          "internalType": "string",
          "name": "",
          "type": "string"
        }
      ],
      "stateMutability": "view",
      "type": "function"
    },
    {
      "inputs": [],
      "name": "totalSupply",
      "outputs": [
        {
          "internalType": "uint256",
          "name": "",
          "type": "uint256"
        }
      ],
      "stateMutability": "view",
      "type": "function"
    },
    {
      "inputs": [
        {
          "internalType": "address",
          "name": "to",
          "type": "address"
        },
        {
          "internalType": "uint256",
          "name": "value",
          "type": "uint256"
        }
      ],
      "name": "transfer",
      "outputs": [
        {
          "internalType": "bool",
          "name": "",
          "type": "bool"
        }
      ],
      "stateMutability": "nonpayable",
      "type": "function"
    },
    {
      "inputs": [
        {
          "internalType": "address",
          "name": "from",
          "type": "address"
        },
        {
          "internalType": "address",
          "name": "to",
          "type": "address"
        },
        {
          "internalType": "uint256",
          "name": "value",
          "type": "uint256"
        }
      ],
      "name": "transferFrom",
      "outputs": [
        {
          "internalType": "bool",
          "name": "",
          "type": "bool"
        }
      ],
      "stateMutability": "nonpayable",
      "type": "function"
    },
    {
      "inputs": [
        {
          "internalType": "address",
          "name": "newOwner",
          "type": "address"
        }
      ],
      "name": "transferOwnership",
      "outputs": [],
      "stateMutability": "nonpayable",
      "type": "function"
    },
    {
      "inputs": [],
      "name": "withdrawRemainingTokens",
      "outputs": [],
      "stateMutability": "nonpayable",
      "type": "function"
    }
  ],
  "bytecode": "0x60806040523480156200001157600080fd5b50336040518060400160405280600a81526020017f436c61696d546f6b656e000000000000000000000000000000000000000000008152506040518060400160405280600581526020017f434c41494d00000000000000000000000000000000000000000000000000000081525081600390816200009091906200074b565b508060049081620000a291906200074b565b505050600073ffffffffffffffffffffffffffffffffffffffff168173ffffffffffffffffffffffffffffffffffffffff16036200011a5760006040517f1e4fbdf700000000000000000000000000000000000000000000000000000000815260040162000111919062000877565b60405180910390fd5b6200012b816200014e60201b60201c565b50620001483069d3c21bcecceda10000006200021460201b60201c565b62000969565b6000600560009054906101000a900473ffffffffffffffffffffffffffffffffffffffff16905081600560006101000a81548173ffffffffffffffffffffffffffffffffffffffff021916908373ffffffffffffffffffffffffffffffffffffffff1602179055508173ffffffffffffffffffffffffffffffffffffffff168173ffffffffffffffffffffffffffffffffffffffff167f8be0079c531659141344cd1fd0a4f28419497f9722a3daafe3b4186f6b6457e060405160405180910390a35050565b600073ffffffffffffffffffffffffffffffffffffffff168273ffffffffffffffffffffffffffffffffffffffff1603620002895760006040517fec442f0500000000000000000000000000000000000000000000000000000000815260040162000280919062000877565b60405180910390fd5b6200029d60008383620002a160201b60201c565b5050565b600073ffffffffffffffffffffffffffffffffffffffff168373ffffffffffffffffffffffffffffffffffffffff1603620002f7578060026000828254620002ea9190620008c3565b92505081905550620003cd565b60008060008573ffffffffffffffffffffffffffffffffffffffff1673ffffffffffffffffffffffffffffffffffffffff1681526020019081526020016000205490508181101562000386578381836040517fe450d38c0000000000000000000000000000000000000000000000000000000081526004016200037d939291906200090f565b60405180910390fd5b8181036000808673ffffffffffffffffffffffffffffffffffffffff1673ffffffffffffffffffffffffffffffffffffffff16815260200190815260200160002081905550505b600073ffffffffffffffffffffffffffffffffffffffff168273ffffffffffffffffffffffffffffffffffffffff160362000418578060026000828254039250508190555062000465565b806000808473ffffffffffffffffffffffffffffffffffffffff1673ffffffffffffffffffffffffffffffffffffffff168152602001908152602001600020600082825401925050819055505b8173ffffffffffffffffffffffffffffffffffffffff168373ffffffffffffffffffffffffffffffffffffffff167fddf252ad1be2c89b69c2b068fc378daa952ba7f163c4a11628f55a4df523b3ef83604051620004c491906200094c565b60405180910390a3505050565b600081519050919050565b7f4e487b7100000000000000000000000000000000000000000000000000000000600052604160045260246000fd5b7f4e487b7100000000000000000000000000000000000000000000000000000000600052602260045260246000fd5b600060028204905060018216806200055357607f821691505b6020821081036200056957620005686200050b565b5b50919050565b60008190508160005260206000209050919050565b60006020601f8301049050919050565b600082821b905092915050565b600060088302620005d37fffffffffffffffffffffffffffffffffffffffffffffffffffffffffffffffff8262000594565b620005df868362000594565b95508019841693508086168417925050509392505050565b6000819050919050565b6000819050919050565b60006200062c620006266200062084620005f7565b62000601565b620005f7565b9050919050565b6000819050919050565b62000648836200060b565b62000660620006578262000633565b848454620005a1565b825550505050565b600090565b6200067762000668565b620006848184846200063d565b505050565b5b81811015620006ac57620006a06000826200066d565b6001810190506200068a565b5050565b601f821115620006fb57620006c5816200056f565b620006d08462000584565b81016020851015620006e0578190505b620006f8620006ef8562000584565b83018262000689565b50505b505050565b600082821c905092915050565b6000620007206000198460080262000700565b1980831691505092915050565b60006200073b83836200070d565b9150826002028217905092915050565b6200075682620004d1565b67ffffffffffffffff811115620007725762000771620004dc565b5b6200077e82546200053a565b6200078b828285620006b0565b600060209050601f831160018114620007c35760008415620007ae578287015190505b620007ba85826200072d565b8655506200082a565b601f198416620007d3866200056f565b60005b82811015620007fd57848901518255600182019150602085019450602081019050620007d6565b868310156200081d578489015162000819601f8916826200070d565b8355505b6001600288020188555050505b505050505050565b600073ffffffffffffffffffffffffffffffffffffffff82169050919050565b60006200085f8262000832565b9050919050565b620008718162000852565b82525050565b60006020820190506200088e600083018462000866565b92915050565b7f4e487b7100000000000000000000000000000000000000000000000000000000600052601160045260246000fd5b6000620008d082620005f7565b9150620008dd83620005f7565b9250828201905080821115620008f857620008f762000894565b5b92915050565b6200090981620005f7565b82525050565b600060608201905062000926600083018662000866565b620009356020830185620008fe565b620009446040830184620008fe565b949350505050565b6000602082019050620009636000830184620008fe565b92915050565b61162380620009796000396000f3fe608060405234801561001057600080fd5b50600436106101215760003560e01c806371127ed2116100ad5780638da5cb5b116100715780638da5cb5b146102e857806395d89b4114610306578063a9059cbb14610324578063dd62ed3e14610354578063f2fde38b1461038457610121565b806371127ed214610256578063715018a61461027457806373b2e80e1461027e578063832e3f88146102ae5780638afbf669146102de57610121565b8063270ef385116100f4578063270ef385146101c2578063313ce567146101e057806348c54b9d146101fe5780636f9fb98a1461020857806370a082311461022657610121565b806306fdde0314610126578063095ea7b31461014457806318160ddd1461017457806323b872dd14610192575b600080fd5b61012e6103a0565b60405161013b919061110d565b60405180910390f35b61015e600480360381019061015991906111c8565b610432565b60405161016b9190611223565b60405180910390f35b61017c610455565b604051610189919061124d565b60405180910390f35b6101ac60048036038101906101a79190611268565b61045f565b6040516101b99190611223565b60405180910390f35b6101ca61048e565b6040516101d7919061124d565b60405180910390f35b6101e861049a565b6040516101f591906112d7565b60405180910390f35b6102066104a3565b005b610210610646565b60405161021d919061124d565b60405180910390f35b610240600480360381019061023b91906112f2565b610656565b60405161024d919061124d565b60405180910390f35b61025e61069e565b60405161026b919061124d565b60405180910390f35b61027c6106ae565b005b610298600480360381019061029391906112f2565b6106c2565b6040516102a59190611223565b60405180910390f35b6102c860048036038101906102c391906112f2565b6106e2565b6040516102d59190611223565b60405180910390f35b6102e6610738565b005b6102f06107a5565b6040516102fd919061132e565b60405180910390f35b61030e6107cf565b60405161031b919061110d565b60405180910390f35b61033e600480360381019061033991906111c8565b610861565b60405161034b9190611223565b60405180910390f35b61036e60048036038101906103699190611349565b610884565b60405161037b919061124d565b60405180910390f35b61039e600480360381019061039991906112f2565b61090b565b005b6060600380546103af906113b8565b80601f01602080910402602001604051908101604052809291908181526020018280546103db906113b8565b80156104285780601f106103fd57610100808354040283529160200191610428565b820191906000526020600020905b81548152906001019060200180831161040b57829003601f168201915b5050505050905090565b60008061043d610991565b905061044a818585610999565b600191505092915050565b6000600254905090565b60008061046a610991565b90506104778582856109ab565b610482858585610a40565b60019150509392505050565b678ac7230489e8000081565b60006012905090565b600660003373ffffffffffffffffffffffffffffffffffffffff1673ffffffffffffffffffffffffffffffffffffffff16815260200190815260200160002060009054906101000a900460ff1615610530576040517f08c379a00000000000000000000000000000000000000000000000000000000081526004016105279061145b565b60405180910390fd5b678ac7230489e8000061054230610656565b1015610583576040517f08c379a000000000000000000000000000000000000000000000000000000000815260040161057a906114c7565b60405180910390fd5b6001600660003373ffffffffffffffffffffffffffffffffffffffff1673ffffffffffffffffffffffffffffffffffffffff16815260200190815260200160002060006101000a81548160ff0219169083151502179055506105ee3033678ac7230489e80000610a40565b3373ffffffffffffffffffffffffffffffffffffffff167f896e034966eaaf1adc54acc0f257056febbd300c9e47182cf761982cf1f5e430678ac7230489e8000060405161063c919061124d565b60405180910390a2565b600061065130610656565b905090565b60008060008373ffffffffffffffffffffffffffffffffffffffff1673ffffffffffffffffffffffffffffffffffffffff168152602001908152602001600020549050919050565b6000678ac7230489e80000905090565b6106b6610b34565b6106c06000610bbb565b565b60066020528060005260406000206000915054906101000a900460ff1681565b6000600660008373ffffffffffffffffffffffffffffffffffffffff1673ffffffffffffffffffffffffffffffffffffffff16815260200190815260200160002060009054906101000a900460ff169050919050565b610740610b34565b600061074b30610656565b905060008111610790576040517f08c379a000000000000000000000000000000000000000000000000000000000815260040161078790611533565b60405180910390fd5b6107a23061079c6107a5565b83610a40565b50565b6000600560009054906101000a900473ffffffffffffffffffffffffffffffffffffffff16905090565b6060600480546107de906113b8565b80601f016020809104026020016040519081016040528092919081815260200182805461080a906113b8565b80156108575780601f1061082c57610100808354040283529160200191610857565b820191906000526020600020905b81548152906001019060200180831161083a57829003601f168201915b5050505050905090565b60008061086c610991565b9050610879818585610a40565b600191505092915050565b6000600160008473ffffffffffffffffffffffffffffffffffffffff1673ffffffffffffffffffffffffffffffffffffffff16815260200190815260200160002060008373ffffffffffffffffffffffffffffffffffffffff1673ffffffffffffffffffffffffffffffffffffffff16815260200190815260200160002054905092915050565b610913610b34565b600073ffffffffffffffffffffffffffffffffffffffff168173ffffffffffffffffffffffffffffffffffffffff16036109855760006040517f1e4fbdf700000000000000000000000000000000000000000000000000000000815260040161097c919061132e565b60405180910390fd5b61098e81610bbb565b50565b600033905090565b6109a68383836001610c81565b505050565b60006109b78484610884565b90507fffffffffffffffffffffffffffffffffffffffffffffffffffffffffffffffff811015610a3a5781811015610a2a578281836040517ffb8f41b2000000000000000000000000000000000000000000000000000000008152600401610a2193929190611553565b60405180910390fd5b610a3984848484036000610c81565b5b50505050565b600073ffffffffffffffffffffffffffffffffffffffff168373ffffffffffffffffffffffffffffffffffffffff1603610ab25760006040517f96c6fd1e000000000000000000000000000000000000000000000000000000008152600401610aa9919061132e565b60405180910390fd5b600073ffffffffffffffffffffffffffffffffffffffff168273ffffffffffffffffffffffffffffffffffffffff1603610b245760006040517fec442f05000000000000000000000000000000000000000000000000000000008152600401610b1b919061132e565b60405180910390fd5b610b2f838383610e58565b505050565b610b3c610991565b73ffffffffffffffffffffffffffffffffffffffff16610b5a6107a5565b73ffffffffffffffffffffffffffffffffffffffff1614610bb957610b7d610991565b6040517f118cdaa7000000000000000000000000000000000000000000000000000000008152600401610bb0919061132e565b60405180910390fd5b565b6000600560009054906101000a900473ffffffffffffffffffffffffffffffffffffffff16905081600560006101000a81548173ffffffffffffffffffffffffffffffffffffffff021916908373ffffffffffffffffffffffffffffffffffffffff1602179055508173ffffffffffffffffffffffffffffffffffffffff168173ffffffffffffffffffffffffffffffffffffffff167f8be0079c531659141344cd1fd0a4f28419497f9722a3daafe3b4186f6b6457e060405160405180910390a35050565b600073ffffffffffffffffffffffffffffffffffffffff168473ffffffffffffffffffffffffffffffffffffffff1603610cf35760006040517fe602df05000000000000000000000000000000000000000000000000000000008152600401610cea919061132e565b60405180910390fd5b600073ffffffffffffffffffffffffffffffffffffffff168373ffffffffffffffffffffffffffffffffffffffff1603610d655760006040517f94280d62000000000000000000000000000000000000000000000000000000008152600401610d5c919061132e565b60405180910390fd5b81600160008673ffffffffffffffffffffffffffffffffffffffff1673ffffffffffffffffffffffffffffffffffffffff16815260200190815260200160002060008573ffffffffffffffffffffffffffffffffffffffff1673ffffffffffffffffffffffffffffffffffffffff168152602001908152602001600020819055508015610e52578273ffffffffffffffffffffffffffffffffffffffff168473ffffffffffffffffffffffffffffffffffffffff167f8c5be1e5ebec7d5bd14f71427d1e84f3dd0314c0f7b2291e5b200ac8c7c3b92584604051610e49919061124d565b60405180910390a35b50505050565b600073ffffffffffffffffffffffffffffffffffffffff168373ffffffffffffffffffffffffffffffffffffffff1603610eaa578060026000828254610e9e91906115b9565b92505081905550610f7d565b60008060008573ffffffffffffffffffffffffffffffffffffffff1673ffffffffffffffffffffffffffffffffffffffff16815260200190815260200160002054905081811015610f36578381836040517fe450d38c000000000000000000000000000000000000000000000000000000008152600401610f2d93929190611553565b60405180910390fd5b8181036000808673ffffffffffffffffffffffffffffffffffffffff1673ffffffffffffffffffffffffffffffffffffffff16815260200190815260200160002081905550505b600073ffffffffffffffffffffffffffffffffffffffff168273ffffffffffffffffffffffffffffffffffffffff1603610fc65780600260008282540392505081905550611013565b806000808473ffffffffffffffffffffffffffffffffffffffff1673ffffffffffffffffffffffffffffffffffffffff168152602001908152602001600020600082825401925050819055505b8173ffffffffffffffffffffffffffffffffffffffff168373ffffffffffffffffffffffffffffffffffffffff167fddf252ad1be2c89b69c2b068fc378daa952ba7f163c4a11628f55a4df523b3ef83604051611070919061124d565b60405180910390a3505050565b600081519050919050565b600082825260208201905092915050565b60005b838110156110b757808201518184015260208101905061109c565b60008484015250505050565b6000601f19601f8301169050919050565b60006110df8261107d565b6110e98185611088565b93506110f9818560208601611099565b611102816110c3565b840191505092915050565b6000602082019050818103600083015261112781846110d4565b905092915050565b600080fd5b600073ffffffffffffffffffffffffffffffffffffffff82169050919050565b600061115f82611134565b9050919050565b61116f81611154565b811461117a57600080fd5b50565b60008135905061118c81611166565b92915050565b6000819050919050565b6111a581611192565b81146111b057600080fd5b50565b6000813590506111c28161119c565b92915050565b600080604083850312156111df576111de61112f565b5b60006111ed8582860161117d565b92505060206111fe858286016111b3565b9150509250929050565b60008115159050919050565b61121d81611208565b82525050565b60006020820190506112386000830184611214565b92915050565b61124781611192565b82525050565b6000602082019050611262600083018461123e565b92915050565b6000806000606084860312156112815761128061112f565b5b600061128f8682870161117d565b93505060206112a08682870161117d565b92505060406112b1868287016111b3565b9150509250925092565b600060ff82169050919050565b6112d1816112bb565b82525050565b60006020820190506112ec60008301846112c8565b92915050565b6000602082840312156113085761130761112f565b5b60006113168482850161117d565b91505092915050565b61132881611154565b82525050565b6000602082019050611343600083018461131f565b92915050565b600080604083850312156113605761135f61112f565b5b600061136e8582860161117d565b925050602061137f8582860161117d565b9150509250929050565b7f4e487b7100000000000000000000000000000000000000000000000000000000600052602260045260246000fd5b600060028204905060018216806113d057607f821691505b6020821081036113e3576113e2611389565b5b50919050565b7f416464726573732068617320616c726561647920636c61696d656420746f6b6560008201527f6e73000000000000000000000000000000000000000000000000000000000000602082015250565b6000611445602283611088565b9150611450826113e9565b604082019050919050565b6000602082019050818103600083015261147481611438565b9050919050565b7f496e73756666696369656e7420746f6b656e7320696e20636f6e747261637400600082015250565b60006114b1601f83611088565b91506114bc8261147b565b602082019050919050565b600060208201905081810360008301526114e0816114a4565b9050919050565b7f4e6f20746f6b656e7320746f2077697468647261770000000000000000000000600082015250565b600061151d601583611088565b9150611528826114e7565b602082019050919050565b6000602082019050818103600083015261154c81611510565b9050919050565b6000606082019050611568600083018661131f565b611575602083018561123e565b611582604083018461123e565b949350505050565b7f4e487b7100000000000000000000000000000000000000000000000000000000600052601160045260246000fd5b60006115c482611192565b91506115cf83611192565b92508282019050808211156115e7576115e661158a565b5b9291505056fea264697066735822122049a82e0cb0b5689d04053b28ab00b18c6d65d255dfa468705271608c91a34b9664736f6c63430008180033",
  "linkReferences": {},
  "deployedLinkReferences": {}
}